:1000000036EF00F0EA6A090EE96EEF500DE0020EDD
:10001000016E006A002EFED7012EFBD7970E006EF0
:10002000002EFED7EF2EF3D747EF00F0EF5210E08F
:10003000EACF0DF0E9CF0CF0EF509EA8FED7AD6EE1
:100040000DC0EAFF0CC0E9FFE92AD8B4EA2AEED7CE
:100050002EEF00F0EA6A080EE96EE8D70D0E9EA8B2
:10006000FED7AD6E040E016E5AEF00F0F86AD09E16
:100070000C0EAF6EA20EAC6E900EAB6EC180C18244
:10008000C184C196040E086EFA0E096EBBD7082E05
:10009000FBD7010E046E020E056E870E076E070E6B
:1000A000066E07C00BF006C00AF005C009F004C0D8
:0A00B00008F0D0D7000E016E030027
:020000040030CA
:0E00000000220E0E000181000FC00FE00F4025
:00000001FF
;PIC18F252
;CRC=8DEB  CREATED="23-fev-15 13:57"
