:100000005BEF00F0EA6A0A0EE96EEF500DE0020EB7
:10001000016E006A002EFED7012EFBD7970E006EF0
:10002000002EFED7EF2EF3D76EEF00F00950E96EE9
:100030000AC0EAFF0BC0EFFF000E016E76EF00F082
:10004000010E0924E96E000E0A20EA6E0BC0EFFFD4
:10005000000E016E7CEF00F0020E0924E96E000E26
:100060000A20EA6E0CC0ECFFED520BC0EFFF000E51
:10007000016E84EF00F0EF5210E0EACF0EF0E9CF0E
:100080000DF0EF509EA8FED7AD6E0EC0EAFF0DC07A
:10009000E9FFE92AD8B4EA2AEED753EF00F0EA6A7A
:1000A000090EE96EE8D70D0E9EA8FED7AD6E000EC4
:1000B000016E8DEF00F0F86AD09EEA6AE96A0C0ED4
:1000C000AF6EA20EAC6E900EAB6EC180C182C184C9
:1000D000C196040E096EFA0E0A6E94D7092EFBD74C
:1000E0000A6A050E096E010E0B6EA0D70A6A050E8C
:1000F000096E020E0B6EA4D70A6A050E096E350E44
:100100000C6E0C0E0B6EA8D708C00CF007C00BF0DD
:1001100006C00AF005C009F0C2D7000E016E030048
:020000040030CA
:0E00000000220E0E000181000FC00FE00F4025
:00000001FF
;PIC18F252
;CRC=9A3D  CREATED="10-nov-14 09:22"
