:100000005BEF00F0EA6A090EE96EEF500DE0020EB8
:10001000016E006A002EFED7012EFBD7970E006EF0
:10002000002EFED7EF2EF3D76CEF00F00850E96EEC
:1000300009C0EAFF0AC0EFFF000E016E74EF00F086
:10004000010E0824E96E000E0920EA6E0AC0EFFFD7
:10005000000E016E7AEF00F0020E0824E96E000E29
:100060000920EA6E0BC0ECFFED520AC0EFFF000E54
:10007000016E82EF00F0EF5210E0EACF0DF0E9CF11
:100080000CF0EF509EA8FED7AD6E0DC0EAFF0CC07D
:10009000E9FFE92AD8B4EA2AEED753EF00F0EA6A7A
:1000A000080EE96EE8D70D0E9EA8FED7AD6E040EC1
:1000B000016E8BEF00F0F86AD09E0C0EAF6EA20EB0
:1000C000AC6E900EAB6EC180C182C184C196040E2D
:1000D000086EFA0E096E96D7082EFBD7096A040E31
:1000E000086E010E0A6EA2D7096A040E086E020E8F
:1000F0000A6EA6D7096A040E086E350E0B6E0C0E3A
:100100000A6EAAD707C00BF006C00AF005C009F0B6
:0C01100004C008F0C4D7000E016E03000C
:020000040030CA
:0E00000000220E0E000181000FC00FE00F4025
:00000001FF
;PIC18F252
;CRC=C947  CREATED="19-nov-14 18:33"
