:1000000046EF01F0456E643A2025640A0D00436D09
:10001000643A2025640A0D004461743A20256C641A
:100020000A0D0000046A1FC003F01EC0E9FF1FC0D4
:10003000EAFFEF500D0820E0045003081DE30450D0
:10004000042A036A2024016E2150032201C022F0F9
:1000500003C023F01FC003F01E501E2AD8B41F2A6D
:10006000E96E03C0EAFFEFCF24F023C0EAFF01C02E
:10007000E9FF24C0EFFFD7D70450030803E2010EC5
:10008000016E02D004C001F067EF01F00900F6CF65
:100090001FF0F7CF20F0F5509EA8FED7AD6E1FC021
:1000A000F6FF20C0F7FF1E2EF1D712002550016A7F
:1000B000245C03E224C000F00CD0006A080E266E17
:1000C000243600362550005CD8B0006E0136262E4E
:1000D000F7D71200200E1FA8300E206E1EC000F0B1
:1000E0001EAE08D0001E002A00C01EF02D0E206E8D
:1000F0001F8E1F8001501EC024F0640E256ED6DFB7
:1001000000C01EF0300E0124216E1EC024F00A0E25
:10011000256ECCDF300E0024236E300E0124226EBB
:1001200020C000F0300E215C04E01F821FBE1F843F
:1001300012D020C021F0200E206E300E225C04E090
:100140001F801FBE1F8207D0D8A41F8004E121C0DA
:1001500022F0200E216E1FB405D01FB207D01FB0B1
:1001600009D00CD020509EA8FED7AD6E21509EA87D
:10017000FED7AD6E22509EA8FED7AD6E23509EA82E
:10018000FED7AD6E1200EACF26F0E9CF25F01FAE04
:1001900008D0258E25A8252A1E1E1F1E1E2AD8B46B
:1001A0001F2A1F38F009216E2126E20F226E320F1E
:1001B000246E1F500F0B222622262426E90F236EC1
:1001C000232623261E380F0B2326242623362436E7
:1001D000241E24361E500F0B24262136070E206EB7
:1001E0000A0E23062426FDE322062326FDE321062C
:1001F0002226FDE320062126FDE3EA6A200EE96EB1
:10020000070E2514259CE906251407E125B8E92ADF
:1002100025B803D0200E006E1CD0E926240EE95C20
:10022000D8B4258CEF50006E08E125BC06D025B867
:1002300014D025B602D0200E0BD025AE06D02D0E40
:10024000006EED50259C259E04D025862598300E05
:10025000002600509EA8FED7AD6EEE5025ACDED72E
:100260009DEF01F0EA6A1F0EE96EEF500DE0020EFD
:10027000016E006A002EFED7012EFBD7970E006E8E
:10028000002EFED7EF2EF3D7B8EF01F0F86AD09E1C
:10029000EA6AE96A0C0EAF6EA20EAC6E900EAB6EFF
:1002A000C180C182C184C196EA6A090EE96EE9067D
:1002B0009EAAFED7AECFECFF0D0EEF5CF9E1EC6A23
:1002C0001F6A090E1E6E216A050E206EABD6040E43
:1002D000F66E000EF76E050E1E6ED8DE05C01EF01F
:1002E000180E1F6EF7DE0A0E9EA8FED7AD6E0D0E1D
:1002F0009EA8FED7AD6E0E0EF66E000EF76E050EC2
:100300001E6EC4DE06C01EF0180E1F6EE3DE0A0E5F
:100310009EA8FED7AD6E0D0E9EA8FED7AD6E180E30
:10032000F66E000EF76E050E1E6EB0DE100EE96E54
:1003300008C01FF007C01EF026D70A0E9EA8FED7E1
:10034000AD6E0D0E9EA8FED7AD6E1D6A1D50130832
:100350000AE3036A1D50090FE96E000E0320EA6EDE
:10036000EF6A1D2AF3D7020E1E6E960E1F6E7AD705
:0C0370001E2EFBD799D7000E016E030073
:020000040030CA
:0E00000000220E0E000181000FC00FE00F4025
:00000001FF
;PIC18F252
;CRC=DD24  CREATED="12-nov-14 08:47"
