:1000000040EF01F0456E643A2025640A0D00436D0F
:10001000643A2025640A0D004461743A20256C641A
:100020000A0D0000046A1EC003F01DC0E9FF1EC0D7
:10003000EAFFEF500D0820E0045003081DE30450D0
:10004000042A036A1F24016E2050032201C021F0FC
:1000500003C022F01EC003F01D501D2AD8B41E2A72
:10006000E96E03C0EAFFEFCF23F022C0EAFF01C030
:10007000E9FF23C0EFFFD7D7000E016E61EF01F05B
:100080000900F6CF1EF0F7CF1FF0F5509EA8FED75F
:10009000AD6E1EC0F6FF1FC0F7FF1D2EF1D7120078
:1000A0002450016A235C03E223C000F00CD0006AF4
:1000B000080E256E233600362450005CD8B0006E42
:1000C0000136252EF7D71200200E1EA8300E1F6E07
:1000D0001DC000F01DAE08D0001E002A00C01DF09B
:1000E0002D0E1F6E1E8E1E8001501DC023F0640E4B
:1000F000246ED6DF00C01DF0300E0124206E1DC01E
:1001000023F00A0E246ECCDF300E0024226E300E57
:100110000124216E1FC000F0300E205C04E01E821E
:100120001EBE1E8412D01FC020F0200E1F6E300E87
:10013000215C04E01E801EBE1E8207D0D8A41E8053
:1001400004E120C021F0200E206E1EB405D01EB2A6
:1001500007D01EB009D00CD01F509EA8FED7AD6EA0
:1001600020509EA8FED7AD6E21509EA8FED7AD6E42
:1001700022509EA8FED7AD6E1200EACF25F0E9CF3F
:1001800024F01EAE08D0248E24A8242A1D1E1E1E74
:100190001D2AD8B41E2A1E38F009206E2026E20F30
:1001A000216E320F236E1E500F0B2126212623268F
:1001B000E90F226E222622261D380F0B2226232627
:1001C00022362336231E23361D500F0B23262036BE
:1001D000070E1F6E0A0E22062326FDE321062226A5
:1001E000FDE320062126FDE31F062026FDE3EA6A43
:1001F0001F0EE96E070E2414249CE906241407E15F
:1002000024B8E92A24B803D0200E006E1CD0E926B9
:10021000230EE95CD8B4248CEF50006E08E124BCB6
:1002200006D024B814D024B602D0200E0BD024AEB1
:1002300006D02D0E006EED50249C249E04D0248602
:100240002498300E002600509EA8FED7AD6EEE50CA
:1002500024ACDED797EF01F0EA6A1E0EE96EEF508C
:100260000DE0020E016E006A002EFED7012EFBD7B4
:10027000970E006E002EFED7EF2EF3D7A4EF01F0FD
:10028000F86AD09EEA6AE96A0C0EAF6EA20EAC6EF6
:10029000900EAB6EC180C182C184C196EA6A090E1C
:1002A000E96EE9069EAAFED7AECFECFF0D0EEF5C1D
:1002B000F9E1EC6A1E6A090E1D6E206A050E1F6EBA
:1002C000B1D6040EF66E000EF76E050E1D6ED8DE6A
:1002D00005C01DF0180E1E6EF7DE0A0E9EA8FED792
:1002E000AD6E0D0E9EA8FED7AD6E0E0EF66E000E14
:1002F000F76E050E1D6EC4DE06C01DF0180E1E6ED4
:10030000E3DE0A0E9EA8FED7AD6E0D0E9EA8FED7A8
:10031000AD6E180EF66E000EF76E050E1D6EB0DE99
:10032000100EE96E08C01EF007C01DF026D70A0E99
:100330009EA8FED7AD6E0D0E9EA8FED7AD6E020E26
:100340001D6E960E1E6E88D71D2EFBD7A7D7000EEA
:04035000016E030037
:020000040030CA
:0E00000000220E0E000181000FC00FE00F4025
:00000001FF
;PIC18F252
;CRC=2F53  CREATED="10-nov-14 09:22"
